:100000000C942A000C9447000C9447000C94470071
:100010000C9447000C9447000C9447000C94470044
:100020000C9447000C9447000C9447000C94470034
:100030000C9447000C9447000C9447000C94470024
:100040000C9447000C9447000C9447000C94470014
:100050000C94470011241FBECFE5D8E0DEBFCDBF12
:1000600010E0A0E6B0E0E6E4F7E002C005900D92F3
:10007000A037B107D9F720E0A0E7B0E001C01D929A
:10008000A437B207E1F70E946B020C94A1030C9411
:100090000000823419F118F4813439F00895833462
:1000A000B1F1843409F44CC00895413059F42AB3B5
:1000B00081E090E002C0880F991F6A95E2F7822BD9
:1000C0008ABB08952AB381E090E002C0880F991F8F
:1000D0006A95E2F7809582238ABB0895413059F4EE
:1000E00027B381E090E002C0880F991F6A95E2F77C
:1000F000822B87BB089527B381E090E002C0880F70
:10010000991F6A95E2F78095822387BB0895413055
:1001100059F424B381E090E002C0880F991F6A95DA
:10012000E2F7822B84BB089524B381E090E002C003
:10013000880F991F6A95E2F78095822384BB089502
:10014000413059F421B381E090E002C0880F991F3B
:100150006A95E2F7822B81BB089521B381E090E09C
:1001600002C0880F991F6A95E2F78095822381BBB0
:100170000895823419F118F4813439F008958334E4
:10018000B1F1843409F44CC00895413059F42BB3D3
:1001900081E090E002C0880F991F6A95E2F7822BF8
:1001A0008BBB08952BB381E090E002C0880F991FAC
:1001B0006A95E2F7809582238BBB0895413059F40C
:1001C00028B381E090E002C0880F991F6A95E2F79A
:1001D000822B88BB089528B381E090E002C0880F8D
:1001E000991F6A95E2F78095822388BB0895413074
:1001F00059F425B381E090E002C0880F991F6A95F9
:10020000E2F7822B85BB089525B381E090E002C020
:10021000880F991F6A95E2F78095822385BB089520
:10022000413059F422B381E090E002C0880F991F59
:100230006A95E2F7822B82BB089522B381E090E0B9
:1002400002C0880F991F6A95E2F78095822382BBCE
:1002500008958234D9F018F4813431F04DC08334DC
:1002600039F18434B9F148C029B381E090E0062E19
:1002700002C0880F991F0A94E2F730E0822393238B
:1002800002C0959587956A95E2F7089526B381E0B7
:1002900090E0062E02C0880F991F0A94E2F730E022
:1002A0008223932302C0959587956A95E2F7089576
:1002B00023B381E090E0062E02C0880F991F0A94B4
:1002C000E2F730E08223932302C0959587956A95E3
:1002D000E2F7089520B381E090E0062E02C0880F77
:1002E000991F0A94E2F730E08223932302C0959588
:1002F00087956A95E2F7089580E00895823459F071
:1003000018F4813431F00895833439F0843439F0AD
:1003100008956BBB089568BB089565BB089562BBE3
:10032000089541E060E082E40E94B9008FE99FE017
:100330000197F1F700C0000040E060E082E40E9415
:10034000B9008FE99FE00197F1F700C00000089520
:10035000682F81E40E947E0140E061E082E40E9417
:10036000B9000E9491018FEC97E00197F1F700C06E
:10037000000008952FEF81EE94E0215080409040DE
:10038000E1F700C0000041E060E081E40E94490024
:1003900041E061E081E40E94490041E062E081E4E3
:1003A0000E94490041E063E081E40E94490041E08D
:1003B00064E081E40E94490041E065E081E40E943C
:1003C000490041E066E081E40E94490041E067E0C5
:1003D00081E40E94490041E060E082E40E9449001B
:1003E00041E062E082E40E94490041E061E082E491
:1003F0000E94490040E062E082E40E94B90088E384
:100400000E94A8018FEC97E00197F1F700C000006F
:100410008CE00E94A8018FEC97E00197F1F700C0F3
:10042000000081E00E94A8018FE19EE40197F1F7AE
:1004300000C0000086E00E94A8018FEC97E00197C1
:10044000F1F700C000000895682F81E40E947E014A
:1004500041E061E082E40E94B9000E9491018FECCA
:1004600097E00197F1F700C0000008959FEF980F03
:10047000923070F49FEF960F903160F4813019F450
:100480002FE7260F08C0823031F42FEB260F03C070
:1004900020E801C020E8822F0E94A8018FEC97E09D
:1004A0000197F1F700C000000895CF93DF93EC01AE
:1004B0008881882331F021960E942402899181113C
:1004C000FBCFDF91CF91089540E00E94490008954D
:1004D0000E94290108950E94BA0163E082E40E940B
:1004E000640264E082E40E94640265E082E40E94A7
:1004F000640266E082E40E94640267E082E40E9493
:10050000640280E690E00E9455026CE081E00E9467
:10051000360284E690E00E94550261E082E00E948B
:10052000360288E690E00E9455026CE082E00E946C
:1005300036028CE690E00E945502CDEC63E082E446
:100540000E946802813061F5809171008F5F809315
:10055000710063E081E00E943602809171008A3070
:1005600020F4805D0E942402E2C08C9F812D112422
:10057000869586958695805D0E9424028091710003
:100580008C9F912D1124969596959695990F292FCC
:10059000220F220F920F891B805D0E942402C7C088
:1005A00064E082E40E946802813061F5809173000A
:1005B0008F5F809373006EE081E00E94360280912D
:1005C00073008A3020F4805D0E942402B0C08C9FAA
:1005D000812D1124869586958695805D0E94240242
:1005E000809173008C9F912D1124969596959695E8
:1005F000990F292F220F220F920F891B805D0E94D5
:10060000240295C065E082E40E946802813061F5B1
:10061000809170008F5F8093700063E082E00E94A1
:100620003602809170008A3020F4805D0E9424029E
:100630007EC08C9F812D1124869586958695805D40
:100640000E942402809170008C9F912D1124969518
:1006500096959695990F292F220F220F920F891B9D
:10066000805D0E94240263C066E082E40E9468020A
:10067000813061F5809172008F5F809372006EE02F
:1006800082E00E943602809172008A3020F4805D00
:100690000E9424024CC08C9F812D11248695869542
:1006A0008695805D0E942402809172008C9F912D1E
:1006B0001124969596959695990F292F220F220F22
:1006C000920F891B805D0E94240231C067E082E4A2
:1006D0000E946802813059F51092720010927000E9
:1006E000109273001092710061E00E94360280E661
:1006F00090E00E9455026CE081E00E94360284E6A0
:1007000090E00E94550261E082E00E94360288E695
:1007100090E00E9455026CE082E00E9436028CE676
:1007200090E00E94550261E081E00E9436022FEFC6
:1007300081EE94E0215080409040E1F700C000003D
:06074000FDCEF894FFCF8E
:10074600413D3000423D3000433D3000443D3000E5
:00000001FF
